:020000040800F2
:1000000000150020A5D80208DDAB020805AC0208E7
:100010000BAC020807AC020809AC02080DAC0208E0
:100020000DAC02080DAC02080DAC02080DAC0208C4
:100030000DAC02080DAC0208E39B020835850208EE
:100040000DAC02080DAC02080DAC020811AC0208A0
:100050000DAC02080DAC02080DAC02080DAC020894
:100060000DAC02080DAC02080DAC02080DAC020884
:100070000DAC02080DAC02080DAC02080DAC020874
:100080000DAC02080DAC02080DAC02080DAC020864
:100090000DAC02080DAC02080DAC02080DAC020854
:1000A0000DAC02080DAC02080DAC02080DAC020844
:1000B0000DAC02080DAC02080DAC02080DAC020834
:1000C0000DAC02080DAC02080DAC02080DAC020824
:1000D0000DAC02080DAC02080DAC02080DAC020814
:1000E0000DAC02080DAC02080DAC02080DAC020804
:1000F0000DAC02080DAC02080DAC02080DAC0208F4
:100100000DAC02080DAC02080DAC02080DAC0208E3
:100110000DAC02080DAC02080DAC02080DAC0208D3
:100120000DAC02080DAC02080DAC02080DAC0208C3
:100130000DAC02080DAC02080DAC02080DAC0208B3
:100140000DAC02080DAC02080DAC020893CA010800
:10015000000000FF000000FF000000FF000000FFA3
:10016000000000FF000000FF000000FF000000FF93
:10017000000000FF000000FF000000FF000000FF83
:10018000000000FF000000FF000000FF000000FF73
:10019000000000FF000000FF000000FF000000FF63
:1001A000000000FF000000FF000000FF000000FF53
:1001B000000000FF000000FF000000FF000000FF43
:1001C000000000FF000000FF000000FF000000FF33
:1001D000000000FF000000FF000000FF000000FF23
:1001E000000000FF000000FF000000FF000000FF13
:1001F000000000FF000000FF000000FF000000FF03
:10020000000000FF000000FF000000FF000000FFF2
:10021000000000FF000000FF000000FF000000FFE2
:10022000000000FF000000FF000000FF000000FFD2
:10023000000000FF000000FF000000FF000000FFC2
:10024000000000FF000000FF000000FF000000FFB2
:10025000000000FF000000FF000000FF000000FFA2
:10026000000000FF000000FF000000FF000000FF92
:10027000000000FF000000FF000000FF000000FF82
:1002800002050BF802060DEA02060DE302060DE078
:1002900002060DE602060CF1000102FE000000FF5E
:1002A000000000FF000000FF000000FF000000FF52
:1002B000000000FF000000FF000000FF000000FF42
:1002C000000000FF000000FF000000FF000000FF32
:1002D000000000FF000000FF000000FF000000FF22
:1002E000000000FF000000FF000000FF000000FF12
:1002F000000000FF000000FF000000FF000000FF02
:10030000000000FF000000FF000000FF000000FFF1
:10031000000000FF000000FF000000FF000000FFE1
:10032000000000FF000000FF000000FF000000FFD1
:10033000000000FF010205FC091933BC0E275066BE
:10034000183C763320478616234D8F07244E9102A2
:10035000224A8B0E1C427F24112C584B0B1D3E8FC2
:10036000040B17EA000000FF000000FF000000FF80
:10037000000000FF000000FF000000FF000000FF81
:10038000000000FF000000FF000000FF000000FF71
:10039000000000FF000000FF000000FF000000FF61
:1003A000000000FF000000FF000000FF000000FF51
:1003B000000000FF000000FF000000FF000000FF41
:1003C000000000FF000000FF000000FF000000FF31
:1003D000000000FF000000FF000000FF000000FF21
:1003E000000000FF000000FF000000FF02050AFA05
:1003F000091933A21A3D7628466AA50091ACD500AA
:10040000C5D4EB00E7EDF700FCFDFE00FEFEFF00AB
:10041000F0F4FA00CFDCEF00A2BADF005E81B90091
:10042000234A890810295468040B17DD000000FFD7
:10043000000000FF000000FF000000FF000000FFC0
:10044000000000FF000000FF000000FF000000FFB0
:10045000000000FF000000FF000000FF000000FFA0
:10046000000000FF000000FF000000FF000000FF90
:10047000000000FF000000FF000000FF000000FF80
:10048000000000FF000000FF000000FF000000FF70
:10049000000000FF000000FF000000FF000000FF60
:1004A000000000FF000000FF050E1DE21330614D4B
:1004B000486DA903ABBFDF00E7EDF600F1F4F900EA
:1004C000F1F4F900F1F4F900F1F4F900F1F4F900B4
:1004D000F1F4F900F1F4F900F1F4F900EDF1F800AC
:1004E000C6D4EB006487BF0020447F17091935A4E8
:1004F000000102FA000000FF000000FF000000FF02
:10050000000000FF000000FF000000FF000000FFEF
:10051000000000FF000000FF000000FF000000FFDF
:10052000000000FF000000FF000000FF000000FFCF
:10053000000000FF000000FF000000FF000000FFBF
:10054000000000FF000000FF000000FF000000FFAF
:10055000000000FF000000FF000000FF000000FF9F
:10056000000000FF061123D01B3F7A267494C600BA
:10057000D7E1F000E1E7F200E1E7F200E1E7F200A5
:10058000E1E7F200E1E7F200E1E7F200E1E7F20083
:10059000E1E7F200E1E7F200E1E7F200E1E7F20073
:1005A000E1E7F200DDE4F1009CB5DC002B54960598
:1005B0000C214379010203F9000000FF000000FF55
:1005C000000000FF000000FF000000FF000000FF2F
:1005D000000000FF000000FF000000FF000000FF1F
:1005E000000000FF000000FF000000FF000000FF0F
:1005F000000000FF000000FF000000FF000000FFFF
:10060000000000FF000000FF000000FF000000FFEE
:10061000000000FF000000FF000000FF000000FFDE
:10062000061123DA214684168AA6D300CFDAEB001E
:10063000D0DAEB00D0DAEB00D0DAEB00D0DAEB0066
:10064000D5DEEE00F1F4F900FBFCFE00F6F8FB004D
:10065000DBE2F000D0DAEB00D0DAEB00D0DAEB002E
:10066000D0DAEB00D0DAEB00D0DAEB00ABBFE00081
:100670003861A3020D214572000000FA000000FF5E
:10068000000000FF000000FF000000FF000000FF6E
:10069000000000FF000000FF000000FF000000FF5E
:1006A000000000FF000000FF000000FF000000FF4E
:1006B000000000FF000000FF000000FF000000FF3E
:1006C000000000FF000000FF000000FF000000FF2E
:1006D000000000FF000000FF000000FF030810EF13
:1006E000183B74377898CC00BDCDE400BECDE50052
:1006F000BECDE500BECDE500BECDE500BECDE5003A
:10070000E7ECF500FFFFFF00FFFFFF00FFFFFF002A
:10071000F6F8FB00BCCAE100BECDE500BECDE500A9
:10072000BECDE500BECDE500BECDE500BECDE50009
:1007300097B1D9002D56980409162EA0000000FC90
:10074000000000FF000000FF000000FF000000FFAD
:10075000000000FF000000FF000000FF000000FF9D
:10076000000000FF000000FF000000FF000000FF8D
:10077000000000FF000000FF000000FF000000FF7D
:10078000000000FF000000FF000000FF000000FF6D
:10079000000000FF000000FF000000FF0F29567F4F
:1007A0004E75B300ADBFDF00AEC0DE00AEC0DE00F0
:1007B000AEC0DE00AEC0DF00AEC1DF00AEC1DF0004
:1007C000EDF1F800FFFFFF00FFFFFF00FFFFFF005C
:1007D000FFFFFF00A9B9D700AEC0DE00AEC1DF0049
:1007E000AEC0DF00AEC0DE00AEC0DE00AEC0DE00D8
:1007F000ADBFDE007396CD001B3F781C02060DD9FD
:10080000000000FF000000FF000000FF000000FFEC
:10081000000000FF000000FF000000FF000000FFDC
:10082000000000FF000000FF000000FF000000FFCC
:10083000000000FF000000FF000000FF000000FFBC
:10084000000000FF000000FF000000FF000000FFAC
:10085000000000FF000000FF061124D92850900E70
:100860008DA8D5009DB3D7009DB3D8009DB4D80006
:100870009DB4D8009DB4D9009DB5D9009EB5D900CE
:10088000C7D4E900FEFEFF00FFFFFF00FFFFFF00EF
:10089000DBE3EF0098AED2009EB5D9009DB5D9003C
:1008A0009DB4D9009DB4D9009DB4D8009DB3D800A3
:1008B0009DB3D8009CB2D800426DB2000E244863AC
:1008C000000000F7000000FF000000FF000000FF34
:1008D000000000FF000000FF000000FF000000FF1C
:1008E000000000FF000000FF000000FF000000FF0C
:1008F000000000FF000000FF000000FF000000FFFC
:10090000000000FF000000FF000000FF000000FFEB
:10091000000000FF000000FF0E264D78527CBA0058
:100920008EA8D3008EA8D3008EA9D3008EA9D300A1
:100930008EA9D4008EAAD4008EAAD5008EAAD50086
:1009400090ACD600B1C5E200CCD9EA00B8C9E1004C
:100950008FA7CE008CA8D2008EAAD5008EAAD50073
:100960008EAAD4008EA9D4008EA9D4008EA9D3005B
:100970008EA8D30088A4D000638BC7001E448015C6
:1009800003070DD0000000FF000000FF000000FF83
:10099000000000FF000000FF000000FF000000FF5B
:1009A000000000FF000000FF000000FF000000FF4B
:1009B000000000FF000000FF000000FF000000FF3B
:1009C000000000FF000000FF000000FF000000FF2B
:1009D000000000FF000000FE1D45831E6F95CB0048
:1009E0007E9DCD007E9ECE007E9ECE007E9FCF005F
:1009F0007E9FCF007EA0D0007FA0D0007FA0D1003E
:100A00007FA0D1007FA1D1007EA0D0007E9FCF002B
:100A10007EA0D0007FA0D1007FA0D1007FA0D00019
:100A20007EA0D0007E9FCF007C9DCE00648AC40053
:100A30004774B8003162AF00275CAB00285CA301AB
:100A400008162D88000000FB000000FF000000FFDA
:100A5000000000FF000000FF000000FF000000FF9A
:100A6000000000FF000000FF000000FF000000FF8A
:100A7000000000FF000000FF000000FF000000FF7A
:100A8000000000FF000000FF000000FF000000FF6A
:100A9000000000FF071328D02D5D9E006C92C90056
:100AA0006E92C8006E93C9006E93CA006E94CA001D
:100AB0006E95CB006E95CB007297CD0082A4D300CB
:100AC0008AAAD6008EACD70095B1D9009CB6DC00BE
:100AD0009FB9DD006F96CC006E96CC006E95CC0071
:100AE000658EC8004979BC002C63B100255DAD005E
:100AF000255CAD00245BAC00245AAA002B66B30031
:100B000010295045000000F0000000FF000000FF29
:100B1000000000FF000000FF000000FF000000FFD9
:100B2000000000FF000000FF000000FF000000FFC9
:100B3000000000FF000000FF000000FF000000FFB9
:100B4000000000FF000000FF000000FF000000FFA9
:100B5000000000FF091830A1366DAF005E88C300A9
:100B60005E87C3005E88C4005E89C5005F8AC600D8
:100B70005F8AC6005F8BC700789ED100ECF2F90057
:100B8000FAFBFD00FCFDFE00FFFFFF00FFFFFF0082
:100B9000FFFFFF005A86BF005987C5004076BD00A1
:100BA0002A65B4002662B2002661B2002660B00059
:100BB000255FB000255EAE00255CAD002867B5005E
:100BC000183E741F000000E0000000FF000000FF5E
:100BD000000000FF000000FF000000FF000000FF19
:100BE000000000FF000000FF000000FF000000FF09
:100BF000000000FF000000FF000000FF000000FFF9
:100C0000000000FF000000FF000000FF000000FFE8
:100C1000000000FF102850833775B8004E7DBF00DC
:100C20004E7EBF004E7FC0004F80C1004F80C2008B
:100C30004F81C2004F82C3005184C4006692CB0032
:100C4000BCD0E800FFFFFF00FFFFFF00FFFFFF0039
:100C5000FFFFFF003B70B3002B69B7002765B600AC
:100C60002765B5002764B5002663B4002662B2008C
:100C70002661B2002660B000255EAF002667B60090
:100C80001B49860D000000D0000000FE000000FFA0
:100C9000303030AA3D3D3D773D3D3D763D3D3D7692
:100CA0003D3D3D763C3C3C86060606F6000000FFD6
:100CB000000000FF000000FF000000FF000000FF38
:100CC000000000FF000000FF000000FF000000FF28
:100CD000000000FE112B56693075BA003E73BB0050
:100CE0003E74BB003E74BC003F76BD003F76BE0044
:100CF0003F77BF003F78C0003F79C0004079C10016
:100D0000598CCA00FFFFFF00FFFFFF00FFFFFF003D
:100D1000FFFFFF002663AE002869B9002869B9000B
:100D20002868B8002767B8002766B7002765B500B0
:100D30002764B5002663B3002661B2002569B700B9
:100D40001D519200000000C4000000FD000000FFE3
:100D50007979792ECACACA00CFCFCF00CFCFCF00C2
:100D6000CECECE00969696001C1C1CB0000000FC57
:100D7000000000FF000000FF000000FF000000FF77
:100D8000000000FF000000FF000000FF000000FF67
:100D9000000000FE102952712470B8002E6AB700BE
:100DA0002F6BB8002F6CBA00306EBB00306EBC00E9
:100DB000306FBD003070BE003171BE003172BF00B7
:100DC0004B84C700FFFFFF00FFFFFF00FFFFFF0096
:100DD000FFFFFF002665AF00296CBC00296CBC003A
:100DE000286BBB00286ABA002869B9002868B800D7
:100DF0002767B7002766B6002764B400246BB800E5
:100E00001B508F05000000BE000000FD000000FF29
:100E10007C7C7C29EDEDED00FCFCFC00FCFCFC0086
:100E2000F8F8F800A0A0A0001A1A1A91001500DD29
:100E30000043008A0042008600420086004200868D
:100E40000042008600420086004200860042008682
:100E5000004200860D423D421D6BB1002768B7007D
:100E60002868B700296AB900296BBA00296CBB0051
:100E70002A6DBC002A6EBD002A6FBE002A6FBE001C
:100E80004582C700FFFFFF00FFFFFF00FFFFFF00DD
:100E9000FFFFFF002667B000296EBE00296EBE006E
:100EA000296DBD00296CBD00296BBB00286ABA0002
:100EB0002869B9002868B8002766B600216FBA0013
:100EC000184E7E06001F008E000000FC000000FF90
:100ED0007D7D7D29DEDEDE00E7E7E700F5F5F50044
:100EE000F6F6F600A2A2A2001A1A1A8F03320079AF
:100EF0004BC7000078E0310084E0480082DE480003
:100F000081DD480080DC48007EDB48007DD9480058
:100F10007CD8480068B35C001A65A800276DBA0049
:100F2000296BBA002A6DBC002A6EBD002A6FBE0074
:100F30002A70BF002B71C0002C72C1002C72C2003D
:100F40004885CA00FFFFFF00FFFFFF00FFFFFF0013
:100F5000FFFFFF002A6AB3002C72C1002B71C10091
:100F60002A70C0002A6FC000296EBE00296DBD0026
:100F7000296CBC00286ABB002869B9001D72BA0040
:100F800019656200045E0022000600DE000000FF1A
:100F90004B4B4B5E6565651A7171710AD5D5D500ED
:100FA000F4F4F400A3A3A3001B1B1B8F04330072F3
:100FB0005DE00000E9FFD600EFFFE300EFFFE30094
:100FC000EFFEE300EFFEE300EEFEE300EEFDE300E4
:100FD000EEFDE300E4F4DF00235E9D002774BF0014
:100FE000296DBD002A6EBE002A70C0002B71C100A1
:100FF0002D73C2003074C3003276C4003578C5004A
:10100000508ACD00FFFFFF00FFFFFF00FFFFFF0042
:10101000FFFFFF00326EB5003578C4003377C4009F
:101020003075C3002D73C3002B71C1002A70C0003E
:10103000296FBF00296DBD00296DBC002072B6006C
:1010400019763D00045D001A000500C9000000FE8D
:10105000000000DE000000AE48484845D2D2D20071
:10106000F2F2F200A4A4A4001C1C1C8F0433007133
:101070005BDF0000F1FFE500EFFEE300EAFEDA00CF
:10108000E9FDDA00E9FDDA00F1F4DA00F5F0DA0062
:10109000F5EFDA00F5EFDA005B789F002D7DC200F6
:1010A000296FBF002A71C0002D73C2003175C300C3
:1010B0003578C500387AC7003C7CC8003E7EC90040
:1010C000588FD000FFFFFF00FFFFFF00FFFFFF0072
:1010D000FFFFFF003A74B7003E7EC8003C7CC800AA
:1010E000397AC7003678C6003276C4002D73C20044
:1010F0002A71C100296FBF002C76C1002968A500A4
:101100002B953100045D0019000500C7000000FEAA
:10111000000000FE000000FA51515164D2D2D2000A
:10112000F0F0F000A6A6A6001D1D1D8F0333007170
:1011300059DD0000EDFEE000DFFDC700CFFCAE0092
:10114000CEFBAE00CEFAAE00EED7AE00FFC5AE00CD
:10115000FFC5AE00FFC5AE00B3979B003272B10071
:10116000317AC5003075C3003578C5003A7BC700B9
:101170003F7EC9004280CB004582CB004884CC0032
:101180006194D300FFFFFF00FFFFFF00FFFFFF00A0
:10119000FFFFFF004479B9004884CC004683CC00AF
:1011A0004380CB003F7FCA003B7CC8003679C60035
:1011B0003176C4002C73C2003782C600436F9100A1
:1011C00041B13400035C0019000500C7000000FEB7
:1011D000000000FF000000FE53535366D1D1D10040
:1011E000EEEEEE00A7A7A7001D1D1D8F03330071B3
:1011F00057DB0000EAFEDA00D9FCBE00CFFBAE00F0
:10120000DCFCC600DCFBC600EFE4C100F9D8BF007F
:10121000F9D7BF00F8D7BF00EBCDB9004F709C00E5
:10122000448ACA00397BC7003E7DC9004380CB0099
:101230004783CC004B86CE004F88CF00528AD00027
:101240006A9AD600FFFFFF00FFFFFF00FFFFFF00CD
:10125000FFFFFF004E7FBC005289CF005088CF00B7
:101260004C86CE004884CD004481CB003E7EC90030
:10127000397AC7003E83CA003771AE007BA4900064
:1012800042B63500035C0019000500C7000000FEEF
:10129000000000FF000000FE55555566D1D1D10079
:1012A000EDEDED00A8A8A8001D1D1D8F03330071F2
:1012B00055D90000E6FDD500D2FBB500D0FBB20049
:1012C000EDFDE200E5FCD500E4FBD400E3FBD40037
:1012D000E3FBD400E2FAD400E2F9D400A0BBAE00F4
:1012E0003D70A9005190D1004682CC004A85CD00C6
:1012F0005088CF00548BD100588DD200719FD900F7
:10130000AEC8EA00FFFFFF00FFFFFF00FFFFFF0086
:10131000FFFFFF00B1C6E200709DD800598ED200D9
:10132000558BD1005189CF004C86CE004683CC002E
:101330004786CC004E8CC800607FA1009FCD9B00EB
:101340003DB53300025B0019000500C7000000FE38
:10135000000000FF000000FE56565666D0D0D000B8
:10136000EBEBEB00A8A8A8001E1E1E8F0333007134
:1013700053D70000E3FDD000CBFAAB00C9F9A800B9
:10138000E1FCD000B3F58900B0F38600AFF286002F
:10139000AEF18600ACF08600ABEF8600A3E48100DE
:1013A0005F927B004E81BC005D95D500548BD000D0
:1013B000598ED2005E91D4006193D500D6E3F4003B
:1013C000E1E9F300E1E9F300E1E9F300E1E9F30029
:1013D000E1E8F300E1E8F200C3D3E7005D8CC90067
:1013E0005E91D4005A8FD200558CD100548CD1001C
:1013F0005E96D0003C6A9200B6CAB900A4DA9F009B
:1014000037B22E00025B0019000500C7000000FE85
:10141000000000FF000000FE58585866D0D0D000F1
:10142000E9E9E900AAAAAA001F1F1F8F0333007170
:1014300051D50000E0FCCB00C5F9A200C3F89F0025
:10144000DEFACB00B9F59300BCF59A00BBF39A0025
:10145000BAF39A00B9F29A00B8F19A00AFEE900090
:101460008ED26E0053847F005B89C10071A2DB00C5
:101470006394D5006697D7006A99D800729DD90009
:101480007199D200729AD100729AD100739AD100E8
:101490007299D1007098D0006D96CE006794D000FC
:1014A0006797D7006394D6006799D8006D9ED500E2
:1014B0003F6E970063A16B00CBE2C9009DDA9900F3
:1014C00031AE2A00025A0019000500C7000000FED4
:1014D000000000FF000000FE59595966CFCFCF0031
:1014E000E7E7E700AAAAAA002020208F03330071B3
:1014F0004FD40000DCFBC600BEF79900BCF6960096
:10150000D9FAC600D2F8BC00E4FAD600DEF9D00061
:10151000DEF9D000DEF9D000E2F9D600CCF4B80054
:1015200092E56B008EC975007995A500547DB500D4
:1015300088B0E20079A4DD00739EDB0077A1DC00B7
:101540007AA2DE007CA4DE007EA5DF007EA5DF009F
:101550007DA4DE007AA3DD0078A1DD00749FDB00AE
:10156000729EDA0083ACE200729BD1003E6F8D0068
:101570005B9F610069B76200D3EED0007FCD7A0037
:1015800017A31200015A0019000500C7000000FE51
:10159000000000FF000000FE5C5C5C66CFCFCF0067
:1015A000E5E5E500ACACAC002020208F03330071F2
:1015B0004DD10000D8FAC000B7F59000B4F48D000A
:1015C000D5F9C100CDF7B500BDF39F0090EA6000EA
:1015D0008FE960008DE76000BAF09F00C6F2B100AD
:1015E00088E360009AE37B00BCD6B20062A464008A
:1015F00045749000789BCE009BB9E70096B5E70054
:101600008CAFE40088ABE20088ABE20088ABE2007C
:1016100087AAE20089ADE3008FB1E5009BBAE9003B
:101620008DACDD00567DAF004461790057A55100B7
:101630005CB1550052BB4B00BAE5B80040B23B006C
:1016400003990000005A0019000500C7000000FEC1
:10165000000000FF000000FE5E5E5E66CFCFCF00A0
:10166000E4E4E400ADADAD002121218F033300712E
:101670004BD00000D4F9BC00B0F38700ADF283007A
:10168000D2F7BC00C8F6B000B7F1970085E653006A
:1016900083E5530082E45300B3EE9700C1F0AC0041
:1016A0007DDF530094E37300D2F0C60073C555008C
:1016B00063B24C00509462004A7B8F006D8DBE0077
:1016C0008CA6D700A9BDE800AFC2EC00B1C3ED0005
:1016D000AFC1EB0099B0DF007B98CB00557EA8002E
:1016E000427F75004D9952004E9F46003DA8340040
:1016F00025AA1B000C9F0400AEDFAC003EB13B00EE
:101700000197000000590019000500C7000000FE05
:10171000000000FF000000FE5F5F5F66CECECE00DF
:10172000E2E2E200AEAEAE002121218F0332007171
:1017300049CE0000C9F7AC00A7F17B00A5F07A0004
:10174000CDF6B700C4F4AA00B0EF8F007AE34500ED
:1017500078E2450076E04500ACEB8F00BBEEA500DB
:1017600070DB45008AE06900D9F5CF00C7EFB9000A
:10177000BBE1AF00A9CC9E00A4C799009CBAA4000D
:101780008AA7A9007495A7007090AA007494AC0071
:101790006E8FA8007F9DA80094B1A9009CBE9B00FD
:1017A00098C093009CC69700A2D69D009FDA9A002D
:1017B00099D7960022A71D00ADDFAC003CAF3B00DF
:1017C0000096000000590019000500C7000000FE47
:1017D000000000FF000000FE61616166CDCDCD001C
:1017E000DCDCDC00AFAFAF002222228F03320071BD
:1017F00046CC0000BDF49A008DE44C008CE34C0014
:10180000C1F3A400B7F09800BDF1A3009DE97800F2
:1018100092E66B006ADC3800B3E79C00C3E7B400D3
:101820008CD56E0092D4790096DD7E008ADE6E0043
:1018300088DC6E0086DA6E007BCD640073BF5F00CB
:101840006FB75D006AB2590065AF56005FAD5000DA
:1018500088B48000B4B6B400ADB0AD00ADB0AC009B
:10186000B0B3AF00AEB2AE00A6AAA6005BBE5600F3
:10187000B3E1B10026A72400ACDEAC003BAF3B00D7
:101880000096000000590019000500C7000000FE86
:10189000000000FF000000FE63636366C9C9C90061
:1018A000D0D0D000B0B0B0002323238F033200711A
:1018B00045CA0000BCF49A00E7893D00E492470065
:1018C000B9F19A0096E96C00B2EE9400BFF0A7005F
:1018D000B1EC960043D10700BBD6B000B8B8B80051
:1018E000A5A5A5009393930057B438003EC61300F6
:1018F0003BC3130037C1100033BE0F002DBA0B00DD
:1019000026B5060021B004001DAB020019A8000096
:1019100070BC6300ABABAB008F8F8F007F7F7F000D
:101920006E6E6E005D5D5D004C4C4C001DA5180098
:10193000AEDFAC0024A52400ACDEAC003BAF3B0026
:101940000096000000590019000500C7000000FEC5
:10195000000000FF000000FE65656566CBCBCB0094
:10196000D1D1D100B2B2B2002424248F033200714D
:1019700042C80000BBF39A00F17F3B00EE894700AC
:10198000B7F09A004AD7060043D400007FE0530026
:10199000AFEB94003BCD0000AEC9A3008D8D8D0050
:1019A000727272005858580073AD600085DA6B008F
:1019B00083D86B0082D86B0081D66B007FD46B001C
:1019C0007ED46B007CD26B007AD16B0079D06B0037
:1019D000A4D29D00A2A2A20081818100707070003B
:1019E0005D5D5D004B4B4B003939390078C875009F
:1019F000B3E1B30024A52400ACDEAC003BAF3B0058
:101A00000096000000590019000500C7000000FE04
:101A1000000000FF000000FE67676766CDCDCD00C7
:101A2000D3D3D300B5B5B5002424248F023200717E
:101A300040C60000BAF29A00F17E3B00EE894700F2
:101A4000B7EF9A0047D5060040D100007DDF530074
:101A5000ADEA940039CB0000A5C19A007D7D7D00E0
:101A6000616161004747470076AA670092DD7D000B
:101A700091DC7D0090DA7E0093D0A30093CCAC0083
:101A800092CCAC008CD28D0088D47D0088D47D00AF
:101A9000A9D1A400989898007575750063636300D8
:101AA000515151003F3F3F002D2D2D007DCA7D003B
:101AB00079C9790018A01800ACDEAC003BAF3B0040
:101AC0000096000000590019000500C7000000FE44
:101AD000000000FF000000FE69696966CFCFCF00FB
:101AE000D5D5D500B7B7B7002525258F02320071AF
:101AF0003FC50000B9F19A00E6873D00E391470039
:101B0000B8EF9D0050D516003ED001007CDE53009A
:101B1000ADE9940036C900009BBC8F007379720058
:101B20005B605A003A44360028920B0027BA000046
:101B300024B7000022B308003880C8003D73F700C6
:101B40003D73F7002498540015A9000013A7000066
:101B500034AC2700439B3B00338B2C002A822500AA
:101B600021791D00187116000F680F000096000003
:101B70000096000000960000ACDEAC003BAF3B00DE
:101B80000096000000590019000500C7000000FE83
:101B9000000000FF000000FE6A6A6A66D0D0D00034
:101BA000D6D6D600B9B9B9002525258F02320071E5
:101BB0003DC30000B8F09A0085DC4C0080DB470094
:101BC000CEF3BC00B9EEA20043CF0B007ADC530089
:101BD000ABE8940034C5000085D96800A4DD91000D
:101BE000B9E2AC0053C0350027B7010024B70000AC
:101BF00021B5000020B10800387DCF003E71FF0004
:101C00003E71FF002396570013A7000011A50000A6
:101C10000EA300000BA00000099E0000069C00001F
:101C20000499000001970000009600000096000053
:101C30000096000000960000ACDEAC003BAF3B001D
:101C40000096000000590019000500C7000000FEC2
:101C5000000000FF000000FE6D6D6D66D2D2D20064
:101C6000D8D8D800BCBCBC002626268F0232007112
:101C70003AC10000B7EF9A007BE04D004FD5140049
:101C800080DF5800C0EFAC0042CD0C0078DB530081
:101C9000AAE7940031C3000082DA6500A7E494004B
:101CA000BFEBB20054C8350024B7000021B50000D6
:101CB0001FB200001DAE07003483B5003978DF0085
:101CC0003978DF001F974C0010A400000EA200001E
:101CD0000BA00000089D0000069B00000499000076
:101CE000009600000096000000960000009600009C
:101CF0000096000000960000ACDEAC003BAF3B005D
:101D00000096000000590019000500C7000000FE01
:101D1000000000FF000000FE6E6E6E66D3D3D3009D
:101D2000D9D9D900BDBDBD002727278F0232007148
:101D300038BF0000B6EE9A00C5F1B000BDEFA600B6
:101D400060D63000C0EEAC0040CB0C0077D9530019
:101D5000AAE694002FC1000080D86500A6E4940094
:101D6000BFEBB20052C6350022B500001FB3000021
:101D700087D67700B0E3A700B1DFB300B0DEB600CE
:101D8000B0DEB600ADDFAC00ABDFA600ABDFA60077
:101D9000A9DEA600A8DDA600A8DDA600A7DBA60098
:101DA000A6DBA600A6DBA600A6DBA600A6DBA60097
:101DB000A6DBA600A6DBA600BCE4BC003BAF3B0054
:101DC0000096000000590019000500C7000000FE41
:101DD000000000FF000000FE6F6F6F66D5D5D500D4
:101DE000DBDBDB00BFBFBF002727278F023200717C
:101DF00065C82600B0ED6E00C1EA7E00E1E89900FA
:101E00009BE15100D7E58E0086DC3F00A9DF620030
:101E1000C9E282007BD73900AFDD6B00C7E18300E8
:101E2000D6E3930092D6530073D0390071CE3900B7
:101E3000BDDC7C00BFE0870061C54C004FBD4100A8
:101E40004EBC41004BBA410049B8410048B741007F
:101E500045B5410044B3410042B1410041B14100A8
:101E600041B1410041B1410041B1410041B14100A6
:101E700041B1410041B1410041B14100149F140002
:101E80000096000000590019000500C7000000FE80
:101E9000000000FF000000FE72727266D8D8D80001
:101EA000DDDDDD00C2C2C2002828288F02320071A9
:101EB000B2D96500FFFF9900FFF18400FFD65B00F7
:101EC000FFF48800FFD65B00FFFC9500FFEC7B0071
:101ED000FFDC6400FFFF9900FFE77500FFDE66008E
:101EE000FFD85E00FFF28600FFFF9900FFFF990018
:101EF000FFDF6800F8E6720037961D00035C0011F2
:101F0000035A0013025A0013025900130259001316
:101F10000158001300580013005800130058001314
:101F20000058001300580013005800130058001305
:101F300000580013005800130058001300580013F5
:101F4000005800130036003B000200CE000000FEE7
:101F5000000000FF000000FE74747466D9D9D90037
:101F6000DEDEDE00C4C4C4002929298F02320071DC
:101F7000B1D96500FFFF9900FFF18400FFD65B0037
:101F8000FFF48800FFD65B00FFFC9500FFEC7B00B0
:101F9000FFDC6400FFFF9900FFE77500FFDE6600CD
:101FA000FFD85E00FFF28600FFFF9900FFFF990057
:101FB000FFDF6800F8E67200348D1D00000F00732B
:101FC0000004009D0004009F0004009F0004009F87
:101FD0000004009F0004009F0004009F0004009F75
:101FE0000004009F0004009F0004009F0004009F65
:101FF0000004009F0004009F0004009F0004009F55
:102000000004009F000100B3000000EA000000FF90
:10201000000000FF000000FE76767666DBDBDB006A
:10202000E0E0E000C6C6C6002A2A2A8F023200710C
:10203000B1D96500FFFF9900FFF18400FFD65B0076
:10204000FFF48800FFD65B00FFFC9500FFEC7B00EF
:10205000FFDC6400FFFF9900FFE77500FFDE66000C
:10206000FFD85E00FFF28600FFFF9900FFFF990096
:10207000FFDF6800F7E67200338D1D00000E00A040
:10208000000000F2000000F6000000F6000000F67C
:10209000000000F6000000F6000000F6000000F668
:1020A000000000F6000000F6000000F6000000F658
:1020B000000000F6000000F6000000F6000000F648
:1020C000000000F6000000FA000000FE000000FF23
:1020D000000000FF000000FE78787866DDDDDD009E
:1020E000E2E2E200C8C8C8002A2A2A8F002600932C
:1020F0001D7C090A27860E0627840C062681090600
:1021000025830D06247F090624820E0623800B06F4
:10211000227E090621810E06217D0B06207C090600
:102120001F7B09061E7D0C061E7D0E061D7C0E06FD
:102130001D780A061B790B06065E030F000500B02A
:10214000000000FA000000FF000000FF000000FF98
:10215000000000FF000000FF000000FF000000FF83
:10216000000000FF000000FF000000FF000000FF73
:10217000000000FF000000FF000000FF000000FF63
:10218000000000FF000000FF000000FF000000FF53
:10219000000000FF000000FE7A7A7A66DEDEDE00D4
:1021A000E3E3E300CACACA002B2B2B8F000200E135
:1021B0000009009D000900850009008500090085CF
:1021C00000090085000900850009008500090085D7
:1021D00000090085000900850009008500090085C7
:1021E00000090085000900850009008500090085B7
:1021F000000900850009008500070090000000D557
:10220000000000FD000000FF000000FF000000FFD4
:10221000000000FF000000FF000000FF000000FFC2
:10222000000000FF000000FF000000FF000000FFB2
:10223000000000FF000000FF000000FF000000FFA2
:10224000000000FF000000FF000000FF000000FF92
:10225000000000FF000000FE6A6A6A7FC4C4C40078
:10226000C7C7C700B6B6B6031818189C000000F61A
:10227000000000F4000000EE000000EE000000EEA0
:10228000000000EE000000EE000000EE000000EE96
:10229000000000EE000000EE000000EE000000EE86
:1022A000000000EE000000EE000000EE000000EE76
:1022B000000000EE000000EE000000F1000000FB56
:1022C000000000FF000000FF000000FF000000FF12
:1022D000000000FF000000FF000000FF000000FF02
:1022E000000000FF000000FF000000FF000000FFF2
:1022F000000000FF000000FF000000FF000000FFE2
:10230000000000FF000000FF000000FF000000FFD1
:10231000000000FF000000FF000000E7000000A236
:102320000000009100000095000000CE000000FCBD
:10233000000000FF000000FF000000FF000000FFA1
:10234000000000FF000000FF000000FF000000FF91
:10235000000000FF000000FF000000FF000000FF81
:10236000000000FF000000FF000000FF000000FF71
:10237000000000FF000000FF000000FF000000FF61
:10238000000000FF000000FF000000FF000000FF51
:10239000000000FF000000FF000000FF000000FF41
:1023A000000000FF000000FF000000FF000000FF31
:1023B000000000FF000000FF000000FF000000FF21
:1023C000000000FF000000FF000000FF000000FF11
:1023D000000000FF000000FF000000FD000000F40E
:1023E000000000F1000000F2000000FA000000FF11
:1023F000000000FF000000FF000000FF000000FFE1
:10240000000000FF000000FF000000FF000000FFD0
:10241000000000FF000000FF000000FF000000FFC0
:10242000000000FF000000FF000000FF000000FFB0
:10243000000000FF000000FF000000FF000000FFA0
:10244000000000FF000000FF000000FF000000FF90
:10245000000000FF000000FF000000FF000000FF80
:10246000000000FF000000FF000000FF000000FF70
:10247000000000FF000000FF000000FF000000FF60
:10248000000000FF000000FF000000FF000000FF50
:10249000000000FF000000FF000000FF000000FF40
:1024A000000000FF000000FF000000FF000000FF30
:1024B000000000FF000000FF000000FF000000FF20
:1024C000000000FF000000FF000000FF000000FF10
:1024D000000000FF000000FF000000FF000000FF00
:1024E000000000FF000000FF000000FF000000FFF0
:1024F000000000FF000000FF000000FF000000FFE0
:10250000000000FF000000FF000000FF000000FFCF
:10251000000000FF000000FF000000FF000000FFBF
:10252000000000FF000000FF000000FF000000FFAF
:10253000000000FF000000FF000000FF000000FF9F
:10254000000000FF000000FF000000FF000000FF8F
:10255000000000FF000000FF000000FF000000FF7F
:10256000000000FF000000FF000000FF000000FF6F
:10257000000000FF000000FF000000FF000000FF5F
:10258000000000FF000000FF000000FF000000FF4F
:10259000000000FF000000FF000000FF000000FF3F
:1025A000000000FF000000FF000000FF000000FF2F
:1025B000000000FF000000FF000000FF000000FF1F
:1025C000000000FF000000FF000000FF000000FF0F
:1025D000000000FF000000FF000000FF000000FFFF
:1025E000000000FB8E7A1296D6BA2360000000F934
:1025F000000000FF000000FF000000FF000000FFDF
:10260000000000FF000000FF000000FF000000FFCE
:10261000000000FF000000FF000000FF000000FFBE
:10262000000000FF000000FF000000FF000000FFAE
:10263000000000FF000000FF000000FF000000FF9E
:10264000000000FF000000FF000000FF000000FF8E
:10265000000000FF000000FF000000FF000000FF7E
:10266000000000FF000000FF000000FF000000FF6E
:10267000000000FF000000FF000000FF000000FF5E
:10268000000000FF000000FF000000FF000000FF4E
:10269000000000FF000000FF000000FF000000FE3F
:1026A0004A3E04BBF2E15E0DC2AF3737000000ECDA
:1026B000000000FF000000FF000000FF000000FF1E
:1026C000000000FF000000FF000000FF000000FF0E
:1026D000000000FF000000FF000000FF000000FFFE
:1026E000000000FF000000FF000000FF000000FFEE
:1026F000000000FF000000FF000000FF000000FFDE
:10270000000000FF000000FF000000FF000000FFCD
:10271000000000FF000000FF000000FF000000FFBD
:10272000000000FF000000FF000000FF000000FFAD
:10273000000000FF000000FF000000FF000000FF9D
:10274000000000FF000000FF000000FF000000FF8D
:10275000000000FF000000FF000000FF0D0B00F173
:10276000D1B9352DFBF17102574B0C7B000000EE07
:10277000000000FF000000FF000000FF000000FF5D
:10278000000000FF000000FF000000FF000000FF4D
:10279000000000FF000000FF000000FF000000FF3D
:1027A000000000FF000000FF000000FF000000FF2D
:1027B000000000FF000000FF000000FF000000FF1D
:1027C000000000FF000000FF000000FF000000FF0D
:1027D000000000FF000000FF000000FF000000FFFD
:1027E000000000FF000000FF000000FF000000FFED
:1027F000000000FF000000FF000000FF000000FFDD
:10280000000000FF000000FF000000FF000000FFCC
:10281000000000FF000000FF030300FA86710D7C3A
:10282000FEF47600D1BD421D0C0A00C2000000FA81
:10283000000000FF000000FF000000FF000000FF9C
:10284000000000FF000000FF000000FF000000FF8C
:10285000000000FF000000FF000000FF000000FF7C
:10286000000000FF000000FF000000FF000000FF6C
:10287000000000FF000000FF000000FF000000FF5C
:10288000000000FF000000FF000000FF000000FF4C
:10289000000000FF000000FF000000FF000000FF3C
:1028A000000000FF000000FF000000FF000000FF2C
:1028B000000000FF000000FF000000FF000000FF1C
:1028C000000000FF000000FF000000FF000000FF0C
:1028D000000000FF000000FE362E02C9EED85110A5
:1028E000FEF4740068591067000000E4000000FE68
:1028F000000000FF000000FF000000FF000000FFDC
:10290000000000FF000000FF000000FF000000FFCB
:10291000000000FF000000FF000000FF000000FFBB
:10292000000000FF000000FF000000FF000000FFAB
:10293000000000FF000000FF000000FF000000FF9B
:10294000000000FF000000FF000000FF000000FF8B
:10295000000000FF000000FF000000FF000000FF7B
:10296000000000FF000000FF000000FF000000FF6B
:10297000000000FF000000FF000000FF000000FF5B
:10298000000000FF000000FF000000FF000000FF4B
:10299000000000FF0C0A00F3B69D2247FFF9790002
:1029A000E0C94A12171301B4000000F6000000FF4E
:1029B000000000FF000000FF000000FF000000FF1B
:1029C000000000FF000000FF000000FF000000FF0B
:1029D000000000FF000000FF000000FF000000FFFB
:1029E000000000FF000000FF000000FF000000FFEB
:1029F000000000FF000000FF000000FF000000FFDB
:102A0000000000FF000000FF000000FF000000FFCA
:102A1000000000FF000000FF000000FF000000FFBA
:102A2000000000FF000000FF000000FF000000FFAA
:102A3000000000FF000000FF000000FF000000FF9A
:102A4000000000FF000000FF000000FF000000FF8A
:102A5000000000FC62520699FAEB6903FFF479006A
:102A60007C690C59000000E0000000FE000000FF3F
:102A7000000000FF000000FF000000FF000000FF5A
:102A8000000000FF000000FF000000FF000000FF4A
:102A9000000000FF000000FF000000FF000000FF3A
:102AA000000000FF000000FF000000FF000000FF2A
:102AB000000000FF000000FF000000FF000000FF1A
:102AC000000000FF000000FF000000FF000000FF0A
:102AD000000000FF000000FF000000FF000000FFFA
:102AE000000000FF000000FF000000FF000000FFEA
:102AF000000000FF000000FF000000FF000000FFDA
:102B0000000000FF000000FF000000FF000000FECA
:102B10001B1600E5DFC63D1CFFFB8500ECD2480913
:102B20002C2814A1151515E5000000FE000000FF7B
:102B3000000000FF000000FF000000FF000000FF99
:102B4000000000FF000000FF000000FF000000FF89
:102B5000000000FF000000FF000000FF000000FF79
:102B6000000000FF000000FF000000FF000000FF69
:102B7000000000FF000000FF000000FF000000FF59
:102B8000000000FF000000FF000000FF000000FF49
:102B9000000000FF000000FF000000FF000000FF39
:102BA000000000FF000000FF000000FF000000FF29
:102BB000000000FF000000FF000000FF000000FF19
:102BC000000000FF000000FF000000FE000000F811
:102BD00089740B71FEF58800FEF27C00E4D1730964
:102BE000E4E4E41AC2C2C254000000F8000000FF8E
:102BF000000000FF000000FF000000FF000000FFD9
:102C0000000000FF000000FF000000FF000000FFC8
:102C1000000000FF000000FF000000FF000000FFB8
:102C2000000000FF000000FF000000FF000000FFA8
:102C3000000000FF000000FF000000FF000000FF98
:102C4000000000FF000000FF000000FF000000FF88
:102C5000000000FF000000FF000000FF000000FF78
:102C6000000000FF000000FF000000FF000000FF68
:102C7000000000FF000000FE000000FD2E2E2EE6EA
:102C8000404040C18787878DBABABA59E4DEC12473
:102C9000F4DF6502FFFC9900F7DD5800FBF6E40065
:102CA000FFFFFF00ECECEC11232323D5000000FF15
:102CB000000000FF000000FF000000FF000000FF18
:102CC000000000FF000000FF000000FF000000FF08
:102CD000000000FF000000FF000000FF000000FFF8
:102CE000000000FF000000FF000000FF000000FFE8
:102CF000000000FF000000FF000000FF000000FFD8
:102D0000000000FF000000FF000000FF000000FFC7
:102D1000000000FF000000FF000000FF000000FFB7
:102D2000000000FF060606FC191919EC373737D3E7
:102D30006D6D6D9CAFAFAF69CFCFCF34F1F1F114B2
:102D4000FBFBFB04FEFEFE00FFFEFD00F1DC740059
:102D5000FFF9A000FEEF7C00F3E08600FFFFFF001C
:102D6000FFFFFF00FCFCFC0163636396000000FCB6
:102D7000000000FF000000FF000000FF000000FF57
:102D8000000000FF000000FF000000FF000000FF47
:102D9000000000FF000000FF000000FF000000FF37
:102DA000000000FF000000FF000000FF000000FF27
:102DB000000000FF000000FF000000FF000000FF17
:102DC000000000FF000000FF000000FF000000FF07
:102DD000000000FE000000FC3E3E3EE3585858ACA8
:102DE000A1A1A17ABFBFBF42EEEEEE1EF9F9F90331
:102DF000FFFFFF00FFFFFF00FFFFFF00FFFFFF00DF
:102E0000FFFFFF00FFFFFF00F6ECBE00FAE97C00C9
:102E1000FFFBAA00F6DA4900FAF5DE00FFFFFF002B
:102E2000F0F9FF00FFFFFF00A9A9A94F000000F57E
:102E3000000000FF000000FF000000FF000000FF96
:102E4000000000FF000000FF000000FF000000FF86
:102E5000000000FF000000FF000000FF000000FF76
:102E6000000000FF000000FF000000FF000000FF66
:102E7000000000FF000000FF000000FF000000FE57
:102E8000080808FB2E2E2EE1505050B989898986FA
:102E9000B9B9B950EBEBEB1DF9F9F900FFFFFF00F1
:102EA000FFFFFF00FFFFFF00FFFFFF00FFFFFF002E
:102EB000FFFFFF00FFFFFF00FFFFFF00FFFFFF001E
:102EC000FFFFFF00FFFEFD00F1DA6500FFFDBA0025
:102ED000FFED7600C4D18100A8E8FF0071CDFF00AE
:102EE000A9D8FF00FFFFFF00EFEFEF0F0C0C0CE580
:102EF000000000FF000000FF000000FF000000FFD6
:102F0000000000FF000000FF000000FF000000FFC5
:102F1000000000FF000000FF000000FF000000FFB5
:102F2000000000FF000000FF000000FE0A0A0AFA8D
:102F3000181818E9464646CA6C6C6C96ADADAD6083
:102F4000D4D4D42DF3F3F312FBFBFB03FFFFFF00FC
:102F5000FFFFFF00FFFFFF00FFFFFF00FFFFFF007D
:102F6000FFFFFF00FFFFFF00FEFFFF00F9FCFF0077
:102F7000F6FCFF00E8F6FF00FCFEFF00EEFAFF00A3
:102F8000F9FDFF00F5E9B300FCEF9200FFF9AD0099
:102F9000EAD23D0075B3EA006FAFFF0077A9FF00EA
:102FA00092B8FF00FAFCFF00FEFEFE004E4E4EA45B
:102FB000000000FC000000FF000000FF000000FF18
:102FC000000000FF000000FF000000FF000000FF05
:102FD000000000FF000000FF000000FE000000FBFA
:102FE0003B3B3BD9616161A5A1A1A16DC7C7C73CAE
:102FF000EEEEEE19F9F9F900FFFFFF00FFFFFF0009
:10300000FFFFFF00FFFFFF00FFFFFF00FFFFFF00CC
:10301000FFFFFF00FCFDFF00FBFCFF00F5FAFF00D7
:10302000D6EDFF00C8EAFF0098D1FF007FC4FF0083
:103030007FBEFF006FC0FF0084D3FF0082CCFF0083
:10304000EBF7F800F4DE6D00FFFDD100FDE8620053
:10305000AEB48C0078A8FF0078A8FF0078A8FF0025
:103060007BAAFF00E9F1FF00FFFFFF009D9D9D5E31
:10307000000000F6000000FF000000FF000000FF5D
:10308000000000FF000000F0000000E6000000FD6E
:10309000000000FF101010E6C3C3C34CECECEC14AE
:1030A000F9F9F900FFFFFF00FFFFFF00FFFFFF003E
:1030B000FFFFFF00FFFFFF00F4F8FF00E1ECFF005F
:1030C000C8DBFF00AAC9FF00B5D5FF00BADBFF00CF
:1030D00097C7FF007DB9FF0080BFFF0070B1FF0000
:1030E00071AEFF0076AAFF0078A8FF0079A9FF0063
:1030F0008FB7FF00D0E0FF00F2F7FF00FFFFFF00F7
:10310000F5EAB300FBEF9E00FFF6A600DECC45001B
:1031100081ADF20078A8FF0078A8FF0078A8FF0032
:1031200078A8FF00C1D7FF00FFFFFF00E0E0E0212B
:10313000131313E2000000FF000000FF000000F284
:10314000000000D6000000C6000000D9000000FB0F
:10315000000000FE141414CDE5E5E513FFFFFF00A9
:10316000FFFFFF00F6FAFF00E9F3FF00CCE2FF00EB
:10317000B0D0FF0094BEFF0081B2FF0078ACFF002A
:1031800075AAFF0075ABFF0074ACFF0074ACFF00C4
:1031900075ABFF0075ABFF0075AAFF0075AAFF00B5
:1031A00075AAFF0075AAFF0079ADFF00CAE1FF0014
:1031B000E3F6FF00C4F1FF00EBFBFF00FEFEFB00A7
:1031C000F2DD7200FFFCDC00F7DF470096B1B700CC
:1031D00076ABFF0075AAFF0075AAFF0075AAFF0075
:1031E00075AAFE0096BCFB00FEFFFF00FAFAFA0289
:1031F000474747B1000000F5000000DB000000C7B2
:10320000000000C2000000D9000000F2000000FD34
:10321000000000FD030303CFB6B6B628FFFFFF0092
:10322000E6F4FF0075C4FF0064BBFF0062BAFF0054
:1032300062BAFF0062BAFF0062BAFF0062BAFF0022
:1032400062BAFF0062BAFF0062BAFF0062BAFF0012
:1032500062BAFF0062BAFF0062BAFF0062BAFF0002
:1032600062BAFF0062BAFF0069C0FF0083D9FF00A5
:1032700075CDFF008CD3FF00ECFBFF00F6EDC00026
:10328000FBEEA800FFF39A00BAC3650064BAFC0025
:1032900062BAFF0062BAFF0062BAFF0066B0F500D2
:1032A0006694D700547EC500E8EDF600FEFEFE00F1
:1032B0007C7C7C5D000000C5000000C0000000C4F4
:1032C000000000E1000000F5000000FC000000FF2D
:1032D000000000FE000000DE8B8B8B48FFFFFF002C
:1032E000EEFAFF0055CFFF0049CCFF0049CCFF00AC
:1032F00049CCFF0049CCFF0049CCFF0049CCFF007E
:1033000049CCFF0049CCFF0049CCFF0049CCFF006D
:1033100049CCFF0049CCFF0049CCFF0049CCFF005D
:1033200049CCFF0049CCFF0049CCFF0049CCFF004D
:1033300052CEFF00AFE7FF00D1F5FF00E9DD7A00D4
:10334000FFFAD500E7D63F005AC8EA004ACBFF0093
:103350004ACBFE0065ACE3006792CE004570BB002F
:10336000134FAD000144A8009FB5D600DEDEDE009D
:10337000B1B1B11C060606AE000000CD000000EBA6
:10338000000000F8000000FE000000FF000000FF49
:10339000000000FF000000EB4C4C4C70FFFFFF00F2
:1033A000FAFEFF0067E2FF0040DBFF0040DBFF00AA
:1033B00040DBFF0040DBFF0040DBFF0040DBFF00A5
:1033C00040DBFF0040DBFF0040DBFF0040DBFF0095
:1033D00040DBFF0040DBFF0040DBFF0040DBFF0085
:1033E00040DBFF0040DBFF0040DBFF0040DBFF0075
:1033F00043DCFF0050DEFF0068C1DA00D5D1B80021
:10340000F3E48200B0B98E0089ADD9007BA4D50069
:103410006C9BD1005A7FC2003A68B700285CB200AA
:103420001750A9000D4499005477AB00D9D9D900A1
:10343000D3D3D3062F2F2FA0000000F0000000FAF6
:10344000000000FE000000FF000000FF000000FF81
:10345000000000FF000000F42929299AF7F7F7007F
:10346000FEFEFE00A1EDFF0068E3FF0068E3FF0041
:1034700068E3FF0068E3FF0068E3FF0068E3FF0024
:1034800068E3FF0068E3FF0068E3FF0068E3FF0014
:1034900068E3FF0068E3FF0068E3FF0068E3FF0004
:1034A00068E3FF0068E3FF0068E3FF0068E3FF00F4
:1034B00072E0FC0089D2EE00A7B3C000D7D9DD00CE
:1034C000B0B2B0007D97C6006B8BC7005A7FC100B9
:1034D0004B74BC003C69B8002D5FB3001B4EA300C9
:1034E000114394000B3F910013479400DDDFE0008F
:1034F000F7F7F7007D7D7D73000000F7000000FF07
:10350000000000FF000000FF000000FF000000FFBF
:10351000000000FF000000FA000000C0E0E0E00C46
:10352000FDFDFD00D3F6FE0095EBFF0095EBFF00DF
:1035300097E1F100A7DAE500B8DAE100C4DBE100C9
:10354000C8DCE100BDDAE100ADD9E3009BDCEB00B3
:1035500095E9FC0095EBFF0095EBFF0095EBFF0074
:103560009CEAFE00A5E6FA00B0DFF400B6D4E6005F
:10357000A7C8D2009DB4C100C9CBD1009A9DA700B5
:10358000679D8F00408E8B00408493004078A2009E
:103590003B6DAE002F5EAF00214F9D0014459300A0
:1035A000053C8F00003B9000003F9B00C1D1E9002B
:1035B000FFFFFF00D2D2D22C000000F0000000FF7D
:1035C000000000FF000000FF000000FF000000FFFF
:1035D000000000FF000000FC000000D2B1B1B12BE0
:1035E000FDFDFD00EFFBFD00BBECF800C7DDE200D8
:1035F000E9ECED00F7F9F900FAFCFD00F9FCFD003B
:10360000F6F9FA00E9ECED00DFE1E200DCDDDD00D7
:10361000CEDADD00C5E6EB00C3EFE900BAE9DA0077
:10362000A5E2C60087DAAD004EC3810026AC620079
:103630002BAB64009AB3AD00C0C2C8007A9491006D
:103640001E9357000D804C00057C47000F7E4F00F5
:103650001F825B002F8376002B89740020806B0013
:10366000197F6000117E610006745B006DA49700F5
:10367000FFFFFF00F6F6F602272727CF000000FE27
:10368000000000FF000000FF000000FF000000FF3E
:10369000000000FF000000FE000000E27C7C7C4C8B
:1036A000FCFCFC00F8F9F900D8DFE000F7F8F900BD
:1036B000FAFCFC00FAFBFC00FBFCFC00F6FAF8004C
:1036C000F4F7F600E4E5E600CDCFCE00B4B6B500E1
:1036D000ABAFAC00CBD4CE00A3DEB8007FE1A1003D
:1036E00068DC91004ED67F000DA64D00009444008A
:1036F00046A37300CACDD2009C9EA8003A8D6900F3
:103700000D7E4C00056346004F9F7B0075C49300FF
:1037100055B7780037AE63001C9A4F00088D4600FD
:10372000047E460004784600017944002A7962004C
:10373000F4F8F700FFFFFF0071717182000000FADA
:10374000000000FF000000FF000000FF000000FF7D
:10375000000000FF000000FE000000F04747477730
:10376000F6F6F601E9E9E900ECEDED00FCFCFC0001
:10377000FCFCFC00FCFCFC00FCFCFC00F4F9F5008B
:10378000EEF5F100DDE2DF00C4CBC700ABB3AE0065
:10379000929A950076958200A7D1B60067DB9000DB
:1037A0004ED67E003FCC740024B25E0006934800E3
:1037B0008DAEA300BFC2C8006386810004664600C8
:1037C000327D66007CB8990073BD8E004FAF7300E8
:1037D00033A55E00159F4B00019F4400008D4400FF
:1037E0000076440000624400004F4400034B460052
:1037F000CADED900FFFFFF00B6B6B63D050505EFEE
:10380000000000FF000000FF000000FF000000FFBC
:10381000000000FF000000FF000000F72323239AB0
:10382000E9E9E907EBEBEB00F2F2F200FCFCFC004B
:10383000FBFCFC00FCFDFC00F6F8F700E6EAE80003
:10384000D7DDD900C8CECB00BCC2BF00ADB2AF003F
:10385000929B9600809B8900B8DCC4003FC5710034
:103860003DCB73001FB25B0016A453001C905500A3
:10387000CACDD10089979B00328165008FC3AA0011
:1038800098CDAC0070B68B004FA571003CA36400CE
:103890002BAD5E0011A95300039A51000386590015
:1038A00007736F000A6684000C5E97001063AF0018
:1038B00087B5E500FFFFFF00EDEDED0D1D1D1DD0EF
:1038C000000000FE000000FF000000FF000000FFFD
:1038D000000000FF000000FF000000FB060606BF1E
:1038E000CBCBCB15ECECEC00F2F3F300FBFCFB00D4
:1038F000FAFCFA00F8FBFA00F3F4F300E4E5E40064
:10390000CED2D000BBC1BD00A8AFAB0099A09C0037
:10391000959C9800C7D8CD008FC7A3001BAE54005C
:103920001DB459000FA44F000292440067A1690022
:10393000ACB0B80082A99C00AED5CA008CBFB40060
:103940006DAD8E00519B8B003D95A0002E91B50072
:103950001F86C100187CC9001771CD00166CD800F5
:10396000146BDC00146CDD00166FE200156DDD00D9
:103970004082DB00FCFDFE00FCFCFC005D5D5D9117
:10398000000000FC000000FF000000FF000000FF3E
:10399000000000FF000000FF000000FE000000D457
:1039A000A4A4A431EDEDED00DDDEDD00F1F2F200C6
:1039B000FDFDFD00FBFBFB00F4F4F400E4E4E40097
:1039C000D4D4D400C9C9C900C5C5C500D4D4D40055
:1039D000E7E8E700A9C5B300A0CEB10015AC5000E0
:1039E00000A444000099440036973F00EDDD8300B9
:1039F00092A46800307BC8003272C9003773C300DC
:103A00003C77C9003D7CD8003A7BD9003478D90096
:103A10002D74D9002473DE001F73E1001F70DB00DA
:103A20001E68CF00185CC1000B4FB300054EB500F7
:103A30001660C600D7E4F700FDFDFD00B2B2B24645
:103A4000000000F3000000FF000000FF000000FF86
:103A5000000000FF000000FF000000FD313131C018
:103A6000A1A1A12AD8D8D800CDCDCD00DCDCDC00C6
:103A7000E8E8E800F6F6F600FAFAFA00FAFAFA00D0
:103A8000F7F7F700F5F5F500EEEEEE00D8D8D80020
:103A9000C0C0C000CFCFCF00D3D5D3009BC1AA00F8
:103AA00043A97C002D91A800AF9F7700EDBD5F007A
:103AB000758C9E00527DC000527FC6005187D80091
:103AC0004D8BE500498AE7004487E5004584DE0028
:103AD000457FD6004577C9003D70C2003269C000FD
:103AE0002367CA00196AD6001C72E2002177E80039
:103AF000297CEC00A6C7F600FDFDFD00E2E2E21421
:103B00001D1D1DD7000000FF000000FF000000FF8A
:103B1000000000FF050505FB5A5A5AA0C6C6C61389
:103B2000C3C3C300D9D9D900DDDDDD00E8E8E80072
:103B3000EBEBEB00ECECEC00EBEBEB00E9E9E90084
:103B4000E4E4E400DEDEDE00DBDBDB00D9D9D90013
:103B5000D8D8D800D8D8D800E0E0E000C6C6C60063
:103B6000C1C2C300A9B6CD00E28C5B0097877E007E
:103B70005A88D2006397E7006B9DEF006B9DED00C4
:103B80006D9BE6006A95DB00658FD4005A8AD500EC
:103B90004F85D700538BE3004F8EED004D8FF30020
:103BA0004B8EF300428AF200358AF00026A5F3001E
:103BB00016BFF60050D1F700FCFCFC00F8F8F80244
:103BC0005252529D000000FD000000FF000000FF67
:103BD000000000FC7272728FC9C9C904D2D2D2002F
:103BE000F8F8F800EEEEEE00EEEEEE00E9E9E9009E
:103BF000EBEBEB00EFEFEF00EEEEEE00EAEAEA00AF
:103C0000E6E6E600E3E3E300DFDFDF00DBDBDB002B
:103C1000DCDCDC00ECECEC00E6E6E600F0F0F000CA
:103C2000EAEAEA00C6C6C600B8B2B50077A0E2006C
:103C30007DA7ED007DA8EB007AA5E900729FE50065
:103C40006A9CE700679DED0069A0F3006CA1F50098
:103C500071A4F80067A0F70051A4F50039AFF30094
:103C600021C8F60013D6F8000CD2F8000FACF10012
:103C70001586EB001D77E800F0F4FA00FBFBFB0073
:103C800097979752000000F6000000FF000000FF29
:103C90002A2A2ACEC5C5C512D7D7D700FDFDFD00FB
:103CA000FFFFFF00FAFAFA00E9E9E200F3EEC500CF
:103CB000F5F0C700F9E98D00FAE37A00F7DE7C0041
:103CC000F3DB7F00F2DA7600F1DC7200F2E7AE009F
:103CD000F7EFBA00EBE8D000E8E8E700FCFCFC00F6
:103CE000FFFFFF00F1F1F100C9C9CA00A3B9DC0070
:103CF00080ADEF0084B0F3008AB4F6008EB7F80010
:103D00008BB4F8007DB1F7006DB2F5005CC1F60030
:103D10004ED4F80041E4FB003ADFFA0034CDF7005E
:103D200031B0F2002E90ED00287CEA001E77E90009
:103D30001874E8001874E800B1CEF400FBFBFB0037
:103D4000E1E1E112060606E7000000FF000000FFC7
:103D50006F6F6F7BD5D5D500FBFBFB00FFFFFF002E
:103D6000FCFCF900FCF0AD00FDEC3900FFE90300BC
:103D7000FFE50D00FFE64000FFE65B00FFE46100A9
:103D8000FFE26000FFE45E00FFE44D00FFE21E0082
:103D9000FFE40100FEE91000F9EA5C00F5EFD30052
:103DA000F9F9F900FFFFFF00E9E9E900C2C8D30013
:103DB0009FC1F8008FB9F60083BFF60077CDF700FA
:103DC00070E1FA0069ECFC0063E3FA005ED2F800EF
:103DD00057CBF70053B7F3004FA8F100499DEF0010
:103DE0004490EC003C86EB003281EA00287BE9003D
:103DF0001E77E9003584EA00A8C8F300F9F9F90054
:103E0000F7F7F7003E3E3EAC000000FD000000FF6B
:103E10007A7A7A5EEEEEEE00FAFAFA00F0EDE10060
:103E2000F8DE5100FFDA0000FFE20000FFEB0000C7
:103E3000FFE70000FFE20000FFDE0000FFDB000004
:103E4000FFDA0000FFDB0000FFDE0000FFE3000000
:103E5000FFE70000FFEB0000FFE40000FEDE0E00C5
:103E6000EFE29600EAEAEA00F6F6F600D3DADC00C2
:103E700090E8FB008CEFFC0086E7FB007EDEF9009B
:103E800079D2F80075C5F50070C2F5006DB8F30081
:103E90006CA3EF00669EEF005F99EE005796ED0071
:103EA000629CED0076A8EF0094BBF100BED4F40054
:103EB000E6ECF700F8F8F800F8F8F800F8F8F80081
:103EC000F8F8F8008F8F8F5F000000F7000000FF08
:103ED0006D6D6D66F6F6F600EAE9E900F7DF57006A
:103EE000FFDA0100FFDE0000FFE40000FFEA00004F
:103EF000FFEB0000FFE70000FFE30000FFE1000030
:103F0000FFE00000FFE10000FFE30000FFE8000029
:103F1000FFED0000FFEE0000FFE90000FFE40000FD
:103F2000FEE00700EDE4B000F2F2F200C8D5DA00DE
:103F300093D9F9008FD9F8008BD2F80089C5F50024
:103F400087BAF30084B2F20081AEF10084B0F100D0
:103F50008CB5F100A4C4F200BFD4F400DBE5F50099
:103F6000ECF0F600F6F6F700F8F8F800F8F8F800CC
:103F7000F8F8F800F8F8F800F4F4F400E8E8E805D8
:103F8000CCCCCC107B7B7B5C000000F0000000FF01
:103F90004141418AE8E8E801F9F7EE00FFDD17004A
:103FA000FFDE0000FFE40000FFEA0000FFEF00007A
:103FB000FFF41B00FFF64D00FFF46F00FFF48200DA
:103FC000FFF48500FFF47D00FFF56500FFF939007F
:103FD000FFF80900FFF50000FFF00000FFEB000014
:103FE000FFE60900FDF2A600F2F2F200B5C7D90023
:103FF00098C4F50097BCF30097BCF3009DC0F30094
:10400000B0CBF300C3D6F300D9E4F400E9EEF50039
:10401000F5F5F500F6F6F600F6F6F600F6F6F6001B
:10402000F6F6F600F6F6F600F4F4F400E2E2E20347
:10403000B7B7B7177E7E7E314C4C4C50222222718E
:1040400007070796000000CB000000F5000000FF06
:104050001F1F1FB2CDCDCD0BF3F0E100FFFBE10040
:10406000FFF07600FFEC1B00FFF22F00FFF97E004F
:10407000FFFD8E00FFFF7D00FFFF8100FFFF84003A
:10408000FFFF8D00FFFF8A00FFFF8F00FFFF9300FF
:10409000FFFF9A00FFFC6500FFF82000FFF66000BC
:1040A000FFFBD700FCF4B500E4E3DF00BAC8DE0094
:1040B000C5D8F300D7E2F300E9EDF300F3F3F30022
:1040C000F4F4F400F4F4F400F4F4F400F4F4F40080
:1040D000F4F4F400F2F2F200E5E5E503C5C5C5111C
:1040E00095959526626262423030306408080889EE
:1040F000000000A2000000B7000000CD000000DDBD
:10410000000000EB000000F7000000FE000000FFD0
:10411000030303D5A7A7A725EDE8CE00FFE73800E6
:10412000FFF8BC00FFFDE800FFFDD700FFFD960093
:10413000FFFF9100FFFFB700FFFFCC00FFFFD5009E
:10414000FFFFD500FFFFCC00FFFFBE00FFFFA9006F
:10415000FFFF9F00FFFFCC00FFFFEB00FFFED3003F
:10416000FFF55500F9E74500DBDBD900E7E7E7009D
:10417000F3F3F300F3F3F300F3F3F300F3F3F300DB
:10418000F2F2F200EAEAEA02D4D4D409AEAEAE1AF0
:1041900079797934474747541A1A1A770A0A0A92E2
:1041A000000000AD000000C2000000D3000000E3EA
:1041B000000000ED000000F5000000FA000000FD26
:1041C000000000FE000000FF000000FF000000FFF4
:1041D000000000E76A6A6A57E9E9E900FDDA2400AD
:1041E000FFED1C00FFF86100FFFEB200FFFFE600DC
:1041F000FFFFFD00FFFFFC00FFFFF900FFFFF800DD
:10420000FFFFF700FFFFF900FFFFFA00FFFFFF00CD
:10421000FFFFF200FFFFC800FFFF6F00FFFC4B0035
:10422000FFF20300F5DC7600D1D1D100F1F1F1000D
:10423000F1F1F100E6E6E600C7C7C70D8F8F8F27C3
:10424000606060422F2F2F6211111184000000A1C5
:10425000000000B6000000CB000000DC000000E819
:10426000000000F2000000F8000000FC000000FE6A
:10427000000000FF000000FF000000FF000000FF42
:10428000000000FF000000FF000000FF000000FF32
:10429000000000F42E2E2E97DBDBDB01F7D5740037
:1042A000FFD91700FFF51100FFFE5300FFFF81004B
:1042B000FFFFAA00FFFFCD00FFFFDF00FFFFE900C7
:1042C000FFFFED00FFFFE900FFFFE000FFFFC90077
:1042D000FFFFAB00FFFF8500FFFF4D00FFF5220051
:1042E000FFCC0C00EEDFB800A0A0A01377777734E6
:1042F0003B3B3B561616167B00000098000000AFB3
:10430000000000C4000000D6000000E4000000EF40
:10431000000000F6000000FB000000FD000000FFB0
:10432000000000FF000000FF000000FF000000FF91
:10433000000000FF000000FF000000FF000000FF81
:10434000000000FF000000FF000000FF000000FF71
:10435000000000FB0C0C0CC5B5B5B519F4E5BF00A9
:10436000FFC72B00FFCB0200FFEA2B00FFFA78000B
:10437000FFFFA800FFFFC500FFFFD800FFFFE4001C
:10438000FFFFEA00FFFFEA00FFFFE200FFFFD200AD
:10439000FFFEB500FFF78000FFDD3100FFC81D0004
:1043A000FDC73200DEDDDB0132323271000000B6C3
:1043B000000000CC000000DC000000E9000000F379
:1043C000000000F9000000FC000000FE000000FFFB
:1043D000000000FF000000FF000000FF000000FFE1
:1043E000000000FF000000FF000000FF000000FFD1
:1043F000000000FF000000FF000000FF000000FFC1
:10440000000000FF000000FF000000FF000000FFB0
:10441000000000FE000000E27171714BF3F1EE004C
:10442000FDD56F00FFCB3E00FFBD0000FFC61000B2
:10443000FFD83A00FFE96D00FFF19700FFF6B500E5
:10444000FFF7BA00FFF6B400FFF29100FFEB660041
:10445000FFDE2D00FFCF0800FFC60700FFD360007E
:10446000FAD67600B7B7B7170C0C0CBD000000F2F7
:10447000000000FA000000FD000000FE000000FF48
:10448000000000FF000000FF000000FF000000FF30
:10449000000000FF000000FF000000FF000000FF20
:1044A000000000FF000000FF000000FF000000FF10
:1044B000000000FF000000FF000000FF000000FF00
:1044C000000000FF000000FF000000FF000000FFF0
:1044D000000000FF000000F21E1E1E9FD1D1D1047B
:1044E000F5E7C300FEDB8100FFD46000FFCA1300C4
:1044F000FFD00000FFD80000FFDF0000FFE4000055
:10450000FFE80000FFE90000FFE80000FFE4000012
:10451000FFDF0200FFDD2A00FFE78800FEDA6B0004
:10452000F0E9D8005F5F5F56000000E2000000FE87
:10453000000000FF000000FF000000FF000000FF7F
:10454000000000FF000000FF000000FF000000FF6F
:10455000000000FF000000FF000000FF000000FF5F
:10456000000000FF000000FF000000FF000000FF4F
:10457000000000FF000000FF000000FF000000FF3F
:10458000000000FF000000FF000000FF000000FF2F
:10459000000000FF000000FC000000D859595955E8
:1045A000DADADA02E6D6AF00F5D77F00FEE99C0042
:1045B000FFE97B00FFE94800FFEC2800FFF117004E
:1045C000FFF41400FFF61B00FFF53600FFF45D005A
:1045D000FFF49100FCEF9500F2DE7600EEE7D000EC
:1045E000A6A6A6190D0D0DB3000000F4000000FFF3
:1045F000000000FF000000FF000000FF000000FFBF
:10460000000000FF000000FF000000FF000000FFAE
:10461000000000FF000000FF000000FF000000FF9E
:10462000000000FF000000FF000000FF000000FF8E
:10463000000000FF000000FF000000FF000000FF7E
:10464000000000FF000000FF000000FF000000FF6E
:10465000000000FF000000FF000000F4040404BE9E
:104660005B5B5B4BCECECE02CFCCC100CBBD7E0020
:10467000DCCE6E00EFE67C00FBF79F00FFFEAD0096
:10468000FFFFB800FEFEB800F6F59F00E7E57000FA
:10469000DAD46D00D3CD9500DEDED9009E9E9E1942
:1046A0001B1B1B91000000E4000000FD000000FF48
:1046B000000000FF000000FF000000FF000000FFFE
:1046C000000000FF000000FF000000FF000000FFEE
:1046D000000000FF000000FF000000FF000000FFDE
:1046E000000000FF000000FF000000FF000000FFCE
:1046F000000000FF000000FF000000FF000000FFBE
:10470000000000FF000000FF000000FF000000FFAD
:10471000000000FF000000FF000000FE000000F0AD
:10472000000000C32828287394949420C6C6C602AB
:10473000C5C5C500BBBAAF00B4B49000B3B3840024
:10474000B6B68A00B1B19500B6B6A000BFBFBB0037
:10475000C9C9C900B5B5B50C56565647090909A4CB
:10476000000000DF000000FB000000FF000000FF71
:10477000000000FF000000FF000000FF000000FF3D
:10478000000000FF000000FF000000FF000000FF2D
:10479000000000FF000000FF000000FF000000FF1D
:1047A000000000FF000000FF000000FF000000FF0D
:1047B000000000FF000000FF000000FF000000FFFD
:1047C000000000FF000000FF000000FF000000FFED
:1047D000000000FF000000FF000000FF000000FEDE
:1047E000000000F3000000D6050505A82727277361
:1047F000585858448C8C8C24A5A5A514ABABAB0F92
:10480000ACACAC0FA9A9A9109696961D6E6E6E352C
:104810003B3B3B5E0F0F0F92000000C3000000E81F
:10482000000000FB000000FF000000FF000000FF90
:10483000000000FF000000FF000000FF000000FF7C
:10484000000000FF000000FF000000FF000000FF6C
:10485000000000FF000000FF000000FF000000FF5C
:10486000000000FF000000FF000000FF000000FF4C
:10487000000000FF000000FF000000FF000000FF3C
:10488000000000FF000000FF000000FF000000FF2C
:10489000000000FF000000FF000000FF000000FF1C
:1048A000000000FF000000FB000000EF000000DA45
:1048B000000000C4000000B1000000A4000000A03F
:1048C0000000009F000000A2000000AB000000BC40
:1048D000000000D0000000E7000000F7000000FE2C
:1048E000000000FF000000FF000000FF000000FFCC
:1048F000000000FF000000FF000000FF000000FFBC
:10490000000000FF000000FF000000FF000000FFAB
:10491000000000FF000000FF000000FF000000FF9B
:104B9000000000FF000000FF000000F6000000C160
:104BA000000000BD000000BD000000BD000000BD11
:104BB000000000BD000000BD000000BD000000BD01
:104BC000000000BD000000BD000000BD000000BDF1
:104BD000000000BD000000BD000000BD000000BDE1
:104BE000000000BD000000BD000000BD000000BDD1
:104BF000000000BD000000BD000000BD000000BDC1
:104C0000000000BD000000BD000000BD000000BDB0
:104C1000000000BD000000BD000000BD000000BDA0
:104C2000000000BD000000BD000000BD000000BD90
:104C3000000000BD000000BD000000BD000000BD80
:104C4000000000D1000000FE000000FF000000FF97
:104C5000000000FF000000FC000000BB0404040290
:104C60003939390040404000404040004040400059
:104C70004040400040404000404040004040400034
:104C800040404000474747005050500050505000AF
:104C90005050500050505000505050005050500054
:104CA0005050500050505000505050005050500044
:104CB00042424200404040004040400040404000EE
:104CC00040404000404040004040400040404000E4
:104CD000404040004040400042424200505050009E
:104CE0005050500050505000505050005050500004
:104CF000505050005050500050505000383838003C
:104D000000000027000000F5000000FE000000FF8A
:104D1000000000FF000000F80000009E11111100CB
:104D2000757575007B7B7B007B7B7B006E7C6E00EA
:104D300067816700707B70007B7B7B007B7B7B00E7
:104D40007B7B7B00B2B2B200FFFFFF00FFFFFF00E2
:104D5000FFFFFF00FFFFFF00FFFFFF00FFFFFF005F
:104D6000FFFFFF00FFFFFF00FFFFFF00FFFFFF004F
:104D70008B8B8B007C7C7C007C7C7C007C7C7C0036
:104D8000747C7400698169006D7C6D007B7C7B00A4
:104D90007C7C7C007C7C7C008C8C8C00FFFFFF008A
:104DA000FFFFFF00FFFFFF00FFFFFF00FFFFFF000F
:104DB000FFFFFF00FFFFFF00FFFFFF00ACACAC00F8
:104DC00000000012000000E6000000FD000000FFEF
:104DD000000000FF000000F40000008D1111110020
:104DE00073737300767776005A935A0071B8710026
:104DF0007DBE7C006DB46D005B8B5B0077787700C7
:104E000078787800BABABA00FEFEFE00FEFEFE0018
:104E1000FEFEFE00FEFEFE00FEFEFE00FEFEFE00AA
:104E2000FEFEFE00FEFEFE00FEFEFE00FEFEFE009A
:104E300092929200787878007878780060876000A5
:104E40006CB26B007DBE7C0074BA74005C975C0031
:104E5000727972007878780089898900FEFEFE00F8
:104E6000FEFEFE00FEFEFE00FEFEFE00FEFEFE005A
:104E7000FEFEFE00FEFEFE00FEFEFE00B9B9B90019
:104E800003030303000000DC000000FC000000FF3F
:104E9000000000FF000000F3000000821717170059
:104EA00072727200597C59005BB1580067BB5A009E
:104EB0006ABF5A0065BA5A0054AA5100617861006D
:104EC00074747400B9B9B900FEFEFE00FEFEFE0067
:104ED000FEFEFE00FEFEFE00FEFEFE00FEFEFE00EA
:104EE000FEFEFE00FEFEFE00FEFEFE00FEFEFE00DA
:104EF0008E8E8E00747474006774670051A84F0022
:104F000064B85A006AC05A0067BC5A005CB15700C6
:104F1000568256007474740085858500FDFDFD0081
:104F2000FEFEFE00FEFEFE00FEFEFE00FEFEFE0099
:104F3000FEFEFE00FEFEFE00FEFEFE00C1C1C10040
:104F400009090900000000D2000000FB000000FF7A
:104F5000000000FF000000F200000079191919009C
:104F600070707000457E41003BAE210058C62C0099
:104F700061CF2F0055C42B0034A91C004F774C0083
:104F80006F6F6F00B6B6B600FDFDFD00FDFDFD00C4
:104F9000FDFDFD00FDFDFD00FDFDFD00FDFDFD0035
:104FA000FDFDFD00FDFDFD00FDFDFD00FDFDFD0025
:104FB0008A8A8A006F6F6F005373520031A61C00FB
:104FC00052C22A0061CE2F005AC92D003FB22200E2
:104FD00044843D00707070007D7D7D00F5F5F50026
:104FE000FDFDFD00FDFDFD00FDFDFD00FDFDFD00E5
:104FF000FDFDFD00FDFDFD00FDFDFD00CCCCCC0068
:105000000E0E0E00000000C2000000FA000000FFBB
:10501000000000FF000000F00000006C1D1D1D00DE
:105020006D6D6D004C75430039B902005FD71B00F0
:1050300082E14A0058D4140037AF06005C71560074
:105040006B6B6B00B5B5B500FCFCFC00FCFCFC0018
:10505000FCFCFC00FCFCFC00FCFCFC00FCFCFC0080
:10506000FCFCFC00FCFCFC00FCFCFC00FCFCFC0070
:10507000868686006B6B6B005F6C5E0030AB030056
:1050800052D10E0080E1470066DA24003CBD0300E7
:105090004A793F006C6C6C007A7A7A00F3F3F30083
:1050A000FCFCFC00FCFCFC00FCFCFC00FCFCFC0030
:1050B000FCFCFC00FCFCFC00FCFCFC00D2D2D2009E
:1050C00011111100000000B0000000F8000000FF06
:1050D000000000FF000000EE000000632020200020
:1050E0006A6A6A0064676400468C2D0080D24F00B3
:1050F000BBEB970072C74000487C390066676600CA
:1051000067676700BEBEBE00FBFBFB00FBFBFB004E
:10511000FBFBFB00FBFBFB00FBFBFB00FBFBFB00CB
:10512000FBFBFB00FBFBFB00FBFBFB00FBFBFB00BB
:10513000848484006767670067676700477A39007F
:105140006AC33A00B8EB940089D55900478E2D0008
:10515000616761006767670075757500F2F2F200BC
:10516000FBFBFB00FBFBFB00FBFBFB00FBFBFB007B
:10517000FBFBFB00FBFBFB00FBFBFB00DDDDDD00C5
:1051800018181800000000A6000000F7000000FF3B
:10519000000000FF000000EC000000572222220067
:1051A0006666660063636300616460005D724E0062
:1051B000628243005E6E5300626362006363630059
:1051C00063636300BDBDBD00FAFAFA00FAFAFA00A3
:1051D000FAFAFA00FAFAFA00FAFAFA00FAFAFA0017
:1051E000FAFAFA00FAFAFA00FAFAFA00FAFAFA0007
:1051F00080808000636363006363630063636300B4
:105200005D6E5300628343005E744E006264610011
:1052100063636300636363006F6F6F00EDEDED0028
:10522000FAFAFA00FAFAFA00FAFAFA00FAFAFA00C6
:10523000FAFAFA00FAFAFA00FAFAFA00E3E3E300FB
:105240001B1B1B0000000096000000F6000000FF82
:10525000000000FF000000EB000000503030300084
:10526000A0A0A000A4A4A400A4A4A400A4A4A4009A
:10527000A4A4A400A4A4A400A4A4A400A4A4A4007E
:10528000A4A4A400AEAEAE00B6B6B600B6B6B600E4
:10529000B6B6B600B6B6B600B6B6B600B6B6B60086
:1052A000B6B6B600B6B6B600B6B6B600B6B6B60076
:1052B000A8A8A800A4A4A400A4A4A400A4A4A40032
:1052C000A4A4A400A4A4A400A4A4A400A4A4A4002E
:1052D000A4A4A400A4A4A400A5A5A500B4B4B400EB
:1052E000B6B6B600B6B6B600B6B6B600B6B6B60036
:1052F000B6B6B600B6B6B600B6B6B600B0B0B00038
:105300002020200000000088000000F4000000FFC2
:10531000000000FE000000E9000000443B3B3B00B1
:10532000F0F0F000F9F9F900F9F9F900F9F9F900EC
:10533000F9F9F900F9F9F900F9F9F900F9F9F900C1
:10534000F9F9F900959595005A5A5A005A5A5A0097
:105350005A5A5A005A5A5A00595B5900595B590017
:105360005A5A5A005B5B5B005B5B5B005B5B5B00FC
:10537000DCDCDC00F9F9F900F9F9F900F9F9F900D8
:10538000F9F9F900F9F9F900F9F9F900F9F9F90071
:10539000F9F9F900F9F9F900EFEFEF006F6F6F001D
:1053A0005B5B5B005B5B5B005B5B5B00595B5900BD
:1053B0005B5D5B005D5D5D005F5F5F00646464007A
:1053C000282828000000007F000000F3000000FFF4
:1053D000000000FE000000E70000003E49494900CF
:1053E000F2F2F200F9F9F900F9F9F900F9F9F90026
:1053F000F9F9F900F9F9F900F9F9F900F9F9F90001
:10540000F9F9F9008A8A8A0056565600575757000C
:10541000525A52005383530067A16700629C620096
:105420004E724E005757570057575700575757005F
:10543000DBDBDB00F9F9F900F9F9F900F9F9F9001A
:10544000F9F9F900F9F9F900F9F9F900F9F9F900B0
:10545000F9F9F900F9F9F900EFEFEF006F6F6F005C
:105460005B5B5B005A5F5A005482540068A268007C
:10547000669F6600557C5500666766006C6C6C0024
:105480002E2E2E000000006D000000F1000000FF35
:10549000000000FE000000E5000000325050500007
:1054A000F2F2F200F7F7F700F7F7F700F7F7F70077
:1054B000F7F7F700F7F7F700F7F7F700F7F7F70058
:1054C000F7F7F7008686860052525200505350007C
:1054D000488C48006BB768006FBB68006EBA680004
:1054E00067B56500426B4200525252005252520060
:1054F000D9D9D900F7F7F700F7F7F700F7F7F70072
:10550000F7F7F700F7F7F700F8F8F800F8F8F80001
:10551000F8F8F800F8F8F800F3F3F3007F7F7F0065
:10552000636463004D8C4C006AB768006FBB680011
:105530006EBB680067B565005280520074747400D9
:105540003B3B3B000000005F000000EE000000FF5E
:10555000000000FE000000E10000002D5C5C5C002B
:10556000F3F3F300F7F7F700F7F7F700F7F7F700B3
:10557000F7F7F700F7F7F700F7F7F700F7F7F70097
:10558000F7F7F700818181004E4E4E0046544500EA
:105590003E9E36005ABB430065C7450063C54400C4
:1055A00054B64100338230005151510052525200E2
:1055B000D9D9D900F7F7F700F7F7F700F7F7F700B1
:1055C000F7F7F700F7F7F700F8F8F800F8F8F80041
:1055D000F8F8F800F8F8F800F4F4F400868686008D
:1055E000636E63003C9D340059BB420065C74500B3
:1055F00064C5440055B7410042933D007D7D7D0068
:105600004444440000000055000000EC000000FF8E
:10561000000000FD000000DB000000246262620068
:10562000F4F4F400F6F6F600F6F6F600F6F6F600F8
:10563000F6F6F600F6F6F600F6F6F600F6F6F600E2
:10564000F6F6F600717171004A4A4A00445143006F
:10565000259D060043C5080063D822005CD41900CC
:1056600039BC04002E821C00595959005B5B5B0059
:10567000DADADA00F7F7F700F7F7F700F7F7F700ED
:10568000F7F7F700F7F7F700F7F7F700F8F8F80083
:10569000F8F8F800F8F8F800F4F4F4008D8D8D00B7
:1056A0006C766C00289D0A0041C3070062D7210078
:1056B0005DD51B003CBE05003A942400868686001A
:1056C0004F4F4F0000000044000000E9000000FEC2
:1056D000000000FD000000D7000000206E6E6E008C
:1056E000F5F5F500F5F5F500F5F5F500F5F5F5003E
:1056F000F5F5F500F5F5F500F5F5F500F5F5F5002E
:10570000F5F5F50074747400515151005354530071
:10571000388123005FCF2100A7EA7F0096E565006E
:105720004CBB16004B6B4500646464006565650006
:10573000DCDCDC00F7F7F700F7F7F700F7F7F70026
:10574000F7F7F700F7F7F700F7F7F700F8F8F800C2
:10575000F8F8F800F8F8F800F8F8F8009D9D9D00BA
:10576000818181004D8E3A005BCD1D00A5E97B0053
:105770009AE66C0050BF1800678B60009090900014
:105780005F5F5F000000003A000000E7000000FEDD
:10579000000000FC000000D00000001779797900BB
:1057A000F4F4F400F4F4F400F4F4F400F4F4F40089
:1057B000F4F4F400F5F5F500F5F5F500F5F5F50070
:1057C000F5F5F5007C7C7C005B5B5B005E5E5E005B
:1057D0005C625B005781430083B35B0073A64D009E
:1057E0005B7652006B6B6B006E6E6E006F6F6F00BE
:1057F000DEDEDE00F7F7F700F7F7F700F7F7F70060
:10580000F7F7F700F7F7F700F8F8F800F8F8F800FE
:10581000F8F8F800F8F8F800F8F8F800A6A6A600DE
:105820008C8C8C00898D88006E985B0090C169001B
:1058300085B95F007B987000989998009B9B9B00AE
:105840006A6A6A0000000030000000E4000000FE08
:10585000000000FC000000CC0000001488888800D4
:10586000F4F4F400F4F4F400F4F4F400F4F4F400C8
:10587000F4F4F400F5F5F500F5F5F500F5F5F500AF
:10588000F5F5F5007B7B7B0066666600696969005B
:105890006B6B6B006D6D6D006F6F6F0072727200DD
:1058A0007474740076767600797979007A7A7A0061
:1058B000E0E0E000F7F7F700F7F7F700F7F7F70099
:1058C000F7F7F700F8F8F800F8F8F800F8F8F8003B
:1058D000F8F8F800F8F8F800F8F8F800AEAEAE0006
:1058E00097979700999999009B9B9B009D9D9D0080
:1058F0009F9F9F00A1A1A100A3A3A300A5A5A50010
:105900007979790000000025000000DC000000FE2D
:10591000000000FA000000C50000000B55555500BE
:105920005B5B5B005D5D5D00606060006262620009
:105930006464640066666600696969006B6B6B008D
:105940006D6D6D00E5E5E500F6F6F600F6F6F6009D
:10595000F6F6F600F6F6F600F6F6F600F6F6F600BF
:10596000F7F7F700F7F7F700F7F7F700F7F7F700A3
:105970009D9D9D008B8B8B008D8D8D008F8F8F005B
:105980009191910093939300969696009898980021
:105990009A9A9A009C9C9C009F9F9F00DEDEDE00EE
:1059A000F9F9F900F9F9F900F9F9F900F9F9F9004B
:1059B000F9F9F900F9F9F900F9F9F900F8F8F8003E
:1059C000A1A1A1000000001E000000D6000000FD03
:1059D000000000FA000000C20000000958585800FA
:1059E0006060600061676F005F7FA3006E97C30017
:1059F0006F97C2005F7E9F006E73780076767600A8
:105A000079797900E6E6E600F6F6F600F6F6F600B5
:105A1000F6F6F600F6F6F600F7F7F700F7F7F700F8
:105A2000F7F7F700F7F7F700F7F7F700F7F7F700E2
:105A3000A7A7A700969696009898980087939F002E
:105A40007396BC00759FCB00749CC7007C95B20018
:105A5000A0A3A500A8A8A800AAAAAA00DFDFDF00CB
:105A6000F9F9F900F9F9F900F9F9F900F9F9F9008A
:105A7000F9F9F900F8F8F800F5F5F500F1F1F100A1
:105A8000A9A9A90000000016000000CF000000FC3A
:105A9000000000F9000000BC00000000464646007F
:105AA00035373A005380AE007FAFDE0084B5E100A9
:105AB00084B5E1007BADDB005D84AD0081818100B8
:105AC00087878700EAEAEA00F6F6F600F7F7F700BC
:105AD000F7F7F700F7F7F700F7F7F700F7F7F70032
:105AE000F7F7F700F8F8F800F8F8F800F8F8F80019
:105AF000B0B0B000A2A2A2009CA0A4006295C90010
:105B00007FB0DE0084B5E20083B4E10077A9D9005C
:105B10007D9BBB00B3B3B300B6B6B600E3E3E300CE
:105B2000F9F9F900F9F9F900FAFAFA00F9F9F900C6
:105B3000F4F4F400F1F1F100F0F0F000F0F0F00016
:105B4000B7B7B7000000000D000000C8000000FB60
:105B5000000000F9000000B60000000047474700C1
:105B60002A364300589BD70078B5E70080BFEE0087
:105B700080BEEE0074B2E4005693CC00888B900097
:105B800097979700EEEEEE00F7F7F700F7F7F700BC
:105B9000F7F7F700F7F7F700F8F8F800F8F8F8006B
:105BA000F8F8F800F8F8F800F8F8F800F9F9F90052
:105BB000BBBBBB00AFAFAF008B9FB40063A3DB00E8
:105BC00079B7E80081C0EF007FBDED0072AFE30060
:105BD000659BCE00C1C1C100C3C3C300E5E5E500BC
:105BE000F9F9F900F6F6F600F2F2F200EEEEEE0048
:105BF000EEEEEE00EEEEEE00EEEEEE00EEEEEE007D
:105C0000C6C6C60000000006000000C2000000FA80
:105C1000000000F8000000A500000000434343001E
:105C2000253444004798DD006ABBF30081CDFD00B8
:105C30007ECBFC0062B4EF003F87C6006163660064
:105C40008B8B8B00EDEDED00F7F7F700F8F8F8001F
:105C5000F8F8F800F8F8F800F9F9F900F9F9F9009E
:105C6000F9F9F900F9F9F900F9F9F900F9F9F90088
:105C7000C5C5C500BBBBBB0097AABF004C9FE100D8
:105C80006CBDF50083CEFD007CC9FB0060B1ED006A
:105C90005394CF00A8A8A8007E7E7E00B2B2B200C6
:105CA000EEEEEE00EDEDED00EDEDED00EDEDED00D5
:105CB000EDEDED00EDEDED00EDEDED00EDEDED00C8
:105CC000CECECE0006060600000000BB000000F9A4
:105CD000000000F60000009F000000004343430066
:105CE000202429003475B6007ECCFD00AFE7FF000C
:105CF000A8E3FF006DBDF50025507E0021212100A5
:105D000033333300DDDDDD00F0F0F000F1F1F100C0
:105D1000F4F4F400F5F5F500F7F7F700F8F8F800FB
:105D2000F9F9F900F9F9F900F9F9F900F9F9F900C7
:105D3000D0D0D000C0C0C000B0B3B6004589CA0002
:105D400082CDFC00B3E9FF00A1DFFF006ABAF200D8
